{"abi":[{"type":"receive","stateMutability":"payable"},{"type":"function","name":"enterRaffle","inputs":[{"name":"ticketCount","type":"uint256","internalType":"uint256"}],"outputs":[],"stateMutability":"nonpayable"},{"type":"function","name":"getFunctionSelectors","inputs":[],"outputs":[{"name":"","type":"bytes4[]","internalType":"bytes4[]"}],"stateMutability":"pure"},{"type":"function","name":"getLeaderboard","inputs":[],"outputs":[{"name":"","type":"tuple[]","internalType":"struct Leaderboard[]","components":[{"name":"winner","type":"address","internalType":"address"},{"name":"prize","type":"uint256","internalType":"uint256"},{"name":"timestamp","type":"uint256","internalType":"uint256"}]}],"stateMutability":"view"},{"type":"function","name":"getTicketCost","inputs":[],"outputs":[{"name":"","type":"uint256","internalType":"uint256"}],"stateMutability":"view"},{"type":"function","name":"getTicketsPerUser","inputs":[{"name":"user","type":"address","internalType":"address"}],"outputs":[{"name":"","type":"uint256","internalType":"uint256"}],"stateMutability":"view"},{"type":"function","name":"getTimeLeftToDraw","inputs":[],"outputs":[{"name":"","type":"uint256","internalType":"uint256"}],"stateMutability":"view"},{"type":"function","name":"getTotalParticipants","inputs":[],"outputs":[{"name":"","type":"uint256","internalType":"uint256"}],"stateMutability":"view"},{"type":"function","name":"getTotalTickets","inputs":[],"outputs":[{"name":"","type":"uint256","internalType":"uint256"}],"stateMutability":"view"},{"type":"function","name":"getWinners","inputs":[],"outputs":[{"name":"","type":"address[3]","internalType":"address[3]"}],"stateMutability":"view"},{"type":"function","name":"initialize","inputs":[{"name":"_distributorContract","type":"address","internalType":"address"},{"name":"_deployer","type":"address","internalType":"address"},{"name":"_bunnyToken","type":"address","internalType":"address"},{"name":"_ticketCost","type":"uint256","internalType":"uint256"}],"outputs":[],"stateMutability":"nonpayable"},{"type":"function","name":"selectWinners","inputs":[],"outputs":[],"stateMutability":"nonpayable"},{"type":"function","name":"setRaffleStatus","inputs":[{"name":"_status","type":"bool","internalType":"bool"}],"outputs":[],"stateMutability":"nonpayable"},{"type":"function","name":"setTicketCost","inputs":[{"name":"_ticketCost","type":"uint256","internalType":"uint256"}],"outputs":[],"stateMutability":"nonpayable"},{"type":"function","name":"withdrawBunny","inputs":[{"name":"to","type":"address","internalType":"address"}],"outputs":[],"stateMutability":"nonpayable"},{"type":"event","name":"RaffleEntered","inputs":[{"name":"participant","type":"address","indexed":true,"internalType":"address"},{"name":"tickets","type":"uint256","indexed":false,"internalType":"uint256"}],"anonymous":false},{"type":"event","name":"RaffleReset","inputs":[],"anonymous":false},{"type":"event","name":"RaffleWinnerSelected","inputs":[{"name":"winner","type":"address","indexed":true,"internalType":"address"},{"name":"prizeAmount","type":"uint256","indexed":false,"internalType":"uint256"}],"anonymous":false},{"type":"error","name":"AlreadyInitialized","inputs":[]},{"type":"error","name":"InvalidCaller","inputs":[]},{"type":"error","name":"InvalidParams","inputs":[]},{"type":"error","name":"InvalidTicketCount","inputs":[]},{"type":"error","name":"RaffleNotActive","inputs":[]},{"type":"error","name":"RaffleNotDueYet","inputs":[]}],"bytecode":{"object":"0x608060405234801561001057600080fd5b50611b55806100206000396000f3fe6080604052600436106100e15760003560e01c80639a6ed78d1161007f578063aea61b2b11610059578063aea61b2b14610209578063cf756fdf14610229578063df15c37e14610249578063fd896f9d1461026b57600080fd5b80639a6ed78d146101b45780639a6f308f146101d4578063a90cc445146101f457600080fd5b80632e519f90116100bb5780632e519f90146101485780633057d20c146101685780633a31a76b1461017d5780636d763a6e1461019257600080fd5b806306e8337f146100ed5780630a865eb9146101115780631a0de74c1461013157600080fd5b366100e857005b600080fd5b3480156100f957600080fd5b506006545b6040519081526020015b60405180910390f35b34801561011d57600080fd5b506100fe61012c366004611867565b61028d565b34801561013d57600080fd5b506101466102c6565b005b34801561015457600080fd5b50610146610163366004611882565b6104af565b34801561017457600080fd5b506100fe6106a4565b34801561018957600080fd5b506000546100fe565b34801561019e57600080fd5b506101a76106e3565b604051610108919061189b565b3480156101c057600080fd5b506101466101cf36600461190e565b610766565b3480156101e057600080fd5b506101466101ef366004611867565b6107af565b34801561020057600080fd5b506007546100fe565b34801561021557600080fd5b50610146610224366004611882565b6108c5565b34801561023557600080fd5b5061014661024436600461192b565b6108f5565b34801561025557600080fd5b5061025e610a72565b6040516101089190611976565b34801561027757600080fd5b50610280610ab7565b60405161010891906119b0565b6001600160a01b0381166000908152600e60205260408120548082036102b65750600092915050565b6102bf816110cd565b9392505050565b6005546004546102d69190611a14565b4210156102f65760405163c880586560e01b815260040160405180910390fd5b60006103066000600c01546110fb565b90506000811161034f5760405162461bcd60e51b815260206004820152600f60248201526e4e6f207061727469636970616e747360881b60448201526064015b60405180910390fd5b600047116103965760405162461bcd60e51b8152602060048201526014602482015273496e73756666696369656e742062616c616e636560601b6044820152606401610346565b61039e6117c5565b600d5460006103ab61114a565b905060005b600381101561049757604080516020810184905290810182905242606082015244608082015260a00160408051601f198184030181529190528051602090910120915060006103ff8684611a3d565b61040a906001611a14565b90506000610417826111a2565b6000818152600f60205260409020549091506001600160a01b031686846003811061044457610444611a51565b6001600160a01b0390921660209290920201526003851061048d57600061046a826110cd565b9050801561048b5761047e8282600061122f565b6104888189611a67565b97505b505b50506001016103b0565b506104a18361131d565b6104a9611702565b50505050565b600154600160a01b900460ff166104d957604051632ae47f7360e01b815260040160405180910390fd5b806000036104fa57604051638e71bef960e01b815260040160405180910390fd5b60008054610509908390611a7a565b60015460405163079cc67960e41b8152336004820152602481018390529192506001600160a01b0316906379cc679090604401600060405180830381600087803b15801561055657600080fd5b505af115801561056a573d6000803e3d6000fd5b5050336000908152600e602052604081205490039150610635905057600c54600d54106105d95760405162461bcd60e51b815260206004820152601860248201527f4d6178207061727469636970616e7473207265616368656400000000000000006044820152606401610346565b600d80549060006105e983611a91565b9091555050600d54336000818152600e60209081526040808320859055938252600f905291822080546001600160a01b0319169091179055600780549161062f83611a91565b91905055505b336000908152600e60205260409020546106519083600161122f565b81600060060160008282546106669190611a14565b909155505060405182815233907fff4d34328021c85af2588171c713c19cada0a8acdc20dc117479fcd07865e6269060200160405180910390a25050565b6005546004546000916106b691611a14565b4210156106dd5760055460045442916106ce91611a14565b6106d89190611a67565b905090565b50600090565b6060610411805480602002602001604051908101604052809291908181526020016000905b8282101561075d576000848152602090819020604080516060810182526003860290920180546001600160a01b0316835260018082015484860152600290910154918301919091529083529092019101610708565b50505050905090565b6002546001600160a01b03163314610791576040516348f5c3ed60e01b815260040160405180910390fd5b60018054911515600160a01b0260ff60a01b19909216919091179055565b6002546001600160a01b031633146107da576040516348f5c3ed60e01b815260040160405180910390fd5b6001546040516370a0823160e01b81523060048201526000916001600160a01b0316906370a0823190602401602060405180830381865afa158015610823573d6000803e3d6000fd5b505050506040513d601f19601f820116820180604052508101906108479190611aaa565b60015460405163a9059cbb60e01b81526001600160a01b0385811660048301526024820184905292935091169063a9059cbb906044016020604051808303816000875af115801561089c573d6000803e3d6000fd5b505050506040513d601f19601f820116820180604052508101906108c09190611ac3565b505050565b6002546001600160a01b031633146108f0576040516348f5c3ed60e01b815260040160405180910390fd5b600055565b600154600160a81b900460ff161561091f5760405162dc149f60e41b815260040160405180910390fd5b6001600160a01b038416158061093c57506001600160a01b038316155b8061094e57506001600160a01b038216155b80610957575080155b1561097557604051635435b28960e11b815260040160405180910390fd5b600380546001600160a01b038087166001600160a01b0319928316179092554260049081556000849055600180546002805489871695169490941790935560ff60a81b196001600160a81b031990931686851617600160a01b17928316600160a81b17905562093a80600555600019600b819055610400600c5560405163095ea7b360e01b8152929093169263095ea7b392610a2892309291016001600160a01b03929092168252602082015260400190565b6020604051808303816000875af1158015610a47573d6000803e3d6000fd5b505050506040513d601f19601f82011682018060405250810190610a6b9190611ac3565b5050505050565b610a7a6117c5565b6040805160608101918290529060089060039082845b81546001600160a01b03168152600190910190602001808311610a90575050505050905090565b60408051600d8082526101c0820190925260609160009190602082016101a0803683375050604080518082019091526014815273656e746572526166666c652875696e743235362960601b6020909101525080519091507f2e519f900bc2180b6403d4c88dc160cdce02cddb4ed2e74bc7a68cebefd89b07908290600090610b4157610b41611a51565b6001600160e01b0319909216602092830291909101820152604080518082019091526016815275776974686472617742756e6e7928616464726573732960501b91015280517f9a6f308fb0a3ef3b3511eb0fa90b9ce001c88b0a3c504c2c1a7ed689f2c1c3699082906001908110610bbb57610bbb611a51565b6001600160e01b03199092166020928302919091018201526040805180820190915260168152757365745469636b6574436f73742875696e743235362960501b91015280517faea61b2bbeae1a6cc11e2a4952b7389e4dd3e2513e7d53b5f1640bee85542cda9082906002908110610c3557610c35611a51565b60200260200101906001600160e01b03191690816001600160e01b031916815250506040518060600160405280602b8152602001611af5602b91398051906020012081600381518110610c8a57610c8a611a51565b6001600160e01b031990921660209283029190910182015260408051808201909152601081526f6765744c6173744e756d62657273282960801b91015280517f05269159c67a8bc97ac73bf996ead9959470cfdc30d086639b62e4c054276abc9082906004908110610cfe57610cfe611a51565b6001600160e01b031990921660209283029190910182015260408051808201909152600f81526e73656c65637457696e6e657273282960881b91015280517f1a0de74c8017611fa1084e43db874d6dfb40fe2c3c44ea8d8b9491da752729909082906005908110610d7157610d71611a51565b6001600160e01b031990921660209283029190910182015260408051808201909152600f81526e6765745469636b6574436f7374282960881b91015280517f3a31a76b80d744089a6555030c0f114c5fa675763b9220724e5a9d3995abbede9082906006908110610de457610de4611a51565b6001600160e01b0319909216602092830291909101820152604080518082019091526016815275676574546f74616c5061727469636970616e7473282960501b91015280517fa90cc445df9da488b29ab695affecdcfa8fb9c3f5f466a762403f5431faacbbd9082906007908110610e5e57610e5e611a51565b6001600160e01b0319909216602092830291909101820152604080518082019091526011815270676574546f74616c5469636b657473282960781b91015280517f06e8337fc7abde23b3d72463b6dfb49fd1520e7e33e40a3d5149c8e65897a13c9082906008908110610ed357610ed3611a51565b6001600160e01b031990921660209283029190910182015260408051808201909152600c81526b67657457696e6e657273282960a01b91015280517fdf15c37e9a9208fbb2fa1e0fad67c628befb1d854e94048bad45dba03aa7bb3a9082906009908110610f4357610f43611a51565b6001600160e01b031990921660209283029190910182015260408051808201909152601a81527f6765745469636b6574735065725573657228616464726573732900000000000091015280517f0a865eb9e3927827030edddc2b6e5f760d4e425ea066095d8a528a072ed7b541908290600a908110610fc457610fc4611a51565b6001600160e01b031990921660209283029190910182015260408051808201909152601381527267657454696d654c656674546f44726177282960681b91015280517f3057d20c21b1cf2aa2dbe4cdc3629ad142157d521ea5c440a691b2c939b11777908290600b90811061103b5761103b611a51565b6001600160e01b031990921660209283029190910182015260408051808201909152601081526f6765744c6561646572626f617264282960801b91015280517f6d763a6ed2b23e19859533f69fa1111fcb6949de4abfa7d9e785757f62db362d908290600c9081106110af576110af611a51565b6001600160e01b031990921660209283029190910190910152919050565b60006110e26110dd600184611a67565b6110fb565b6110eb836110fb565b6110f59190611a67565b92915050565b60005b811561114557601082610401811061111857611118611a51565b01546111249082611a14565b905061113282196001611a14565b61113e90831683611a67565b91506110fe565b919050565b600042443360405160200161118493929190928352602083019190915260601b6bffffffffffffffffffffffff1916604082015260540190565b6040516020818303038152906040528051906020012060001c905090565b6000610200815b811561121c5760006111bb8383611a14565b600c5490915081118015906111e457508460108261040181106111e0576111e0611a51565b0154105b1561120f5760108161040181106111fd576111fd611a51565b01546112099086611a67565b94508091505b600183901c9250506111a9565b611227816001611a14565b949350505050565b600c5483116108c057801561126e5781601084610401811061125357611253611a51565b0160008282546112639190611a14565b909155506112fe9050565b81601084610401811061128357611283611a51565b015410156112d35760405162461bcd60e51b815260206004820152601760248201527f556e646572666c6f7720696e20424954207570646174650000000000000000006044820152606401610346565b8160108461040181106112e8576112e8611a51565b0160008282546112f89190611a67565b90915550505b61130a83196001611a14565b61131690841684611a14565b925061122f565b47600061132b600a83611ae0565b905060006113398284611a67565b90506000606461134a836032611a7a565b6113549190611ae0565b905060006064611365846019611a7a565b61136f9190611ae0565b905060006064611380856019611a7a565b61138a9190611ae0565b87516040519192506000916001600160a01b039091169085908381818185875af1925050503d80600081146113db576040519150601f19603f3d011682016040523d82523d6000602084013e6113e0565b606091505b505060208901516040519192506000916001600160a01b039091169085908381818185875af1925050503d8060008114611436576040519150601f19603f3d011682016040523d82523d6000602084013e61143b565b606091505b509091506000905089600260200201516001600160a01b03168460405160006040518083038185875af1925050503d8060008114611495576040519150601f19603f3d011682016040523d82523d6000602084013e61149a565b606091505b505090508280156114a85750815b80156114b15750805b6114f55760405162461bcd60e51b8152602060048201526015602482015274141c9a5e99481d1c985b9cd9995c8819985a5b1959605a1b6044820152606401610346565b89516040518781526001600160a01b03909116907f2dc2cfc1c59467f51f1455fbb2fe510e3316850c4ed4c07d7483afdaf59217a89060200160405180910390a289600160200201516001600160a01b03167f2dc2cfc1c59467f51f1455fbb2fe510e3316850c4ed4c07d7483afdaf59217a88660405161157891815260200190565b60405180910390a289600260200201516001600160a01b03167f2dc2cfc1c59467f51f1455fbb2fe510e3316850c4ed4c07d7483afdaf59217a8856040516115c291815260200190565b60405180910390a260005b60038110156116e757600060405180606001604052808d84600381106115f5576115f5611a51565b60200201516001600160a01b0316815260200183600014611624578360011461161e5787611626565b88611626565b895b81524260209182015261041180546001808201835560009290925283517f9b0443f8fec5d2e9e34fa7af355bfb0c2c699805c23cacaf4e4c3a2c4e013533600390920291820180546001600160a01b0319166001600160a01b03909216919091179055918301517f9b0443f8fec5d2e9e34fa7af355bfb0c2c699805c23cacaf4e4c3a2c4e0135348301556040909201517f9b0443f8fec5d2e9e34fa7af355bfb0c2c699805c23cacaf4e4c3a2c4e013535909101559190910190506115cd565b506116f560088b60036117e3565b5050505050505050505050565b60015b600d548111611773576000601082610401811061172457611724611a51565b01556000818152600f6020818152604080842080546001600160a01b03168552600e8352908420849055928490525280546001600160a01b03191690558061176b81611a91565b915050611705565b506000600d819055600781905560068190556001805460ff60a01b1916600160a01b179055426004556040517f6cb3e4981d8a4f75b6e64343a2224ac84c88b7f6722c2ad6bd53223973abc5659190a1565b60405180606001604052806003906020820280368337509192915050565b826003810192821561182b579160200282015b8281111561182b57825182546001600160a01b0319166001600160a01b039091161782556020909201916001909101906117f6565b5061183792915061183b565b5090565b5b80821115611837576000815560010161183c565b80356001600160a01b038116811461114557600080fd5b60006020828403121561187957600080fd5b6102bf82611850565b60006020828403121561189457600080fd5b5035919050565b602080825282518282018190526000919060409081850190868401855b828110156118f057815180516001600160a01b03168552868101518786015285015185850152606090930192908501906001016118b8565b5091979650505050505050565b801515811461190b57600080fd5b50565b60006020828403121561192057600080fd5b81356102bf816118fd565b6000806000806080858703121561194157600080fd5b61194a85611850565b935061195860208601611850565b925061196660408601611850565b9396929550929360600135925050565b60608101818360005b60038110156119a75781516001600160a01b031683526020928301929091019060010161197f565b50505092915050565b6020808252825182820181905260009190848201906040850190845b818110156119f25783516001600160e01b031916835292840192918401916001016119cc565b50909695505050505050565b634e487b7160e01b600052601160045260246000fd5b808201808211156110f5576110f56119fe565b634e487b7160e01b600052601260045260246000fd5b600082611a4c57611a4c611a27565b500690565b634e487b7160e01b600052603260045260246000fd5b818103818111156110f5576110f56119fe565b80820281158282048414176110f5576110f56119fe565b600060018201611aa357611aa36119fe565b5060010190565b600060208284031215611abc57600080fd5b5051919050565b600060208284031215611ad557600080fd5b81516102bf816118fd565b600082611aef57611aef611a27565b50049056fe696e697469616c697a6528616464726573732c616464726573732c616464726573732c75696e7432353629a26469706673582212207c1a8e7134e7ce3385767fe948b31ee41dd3507c03b9243b66ee4d9b6644805f64736f6c63430008170033","linkReferences":{}},"methodIdentifiers":{"enterRaffle(uint256)":"2e519f90","getFunctionSelectors()":"fd896f9d","getLeaderboard()":"6d763a6e","getTicketCost()":"3a31a76b","getTicketsPerUser(address)":"0a865eb9","getTimeLeftToDraw()":"3057d20c","getTotalParticipants()":"a90cc445","getTotalTickets()":"06e8337f","getWinners()":"df15c37e","initialize(address,address,address,uint256)":"cf756fdf","selectWinners()":"1a0de74c","setRaffleStatus(bool)":"9a6ed78d","setTicketCost(uint256)":"aea61b2b","withdrawBunny(address)":"9a6f308f"},"id":52}