{"abi":[{"type":"receive","stateMutability":"payable"},{"type":"function","name":"_pickThreeRandom","inputs":[{"name":"participants","type":"address[]","internalType":"address[]"},{"name":"seed","type":"uint256","internalType":"uint256"}],"outputs":[{"name":"","type":"address[3]","internalType":"address[3]"}],"stateMutability":"pure"},{"type":"function","name":"enterRaffle","inputs":[{"name":"ticketCount","type":"uint256","internalType":"uint256"}],"outputs":[],"stateMutability":"nonpayable"},{"type":"function","name":"getFunctionSelectors","inputs":[],"outputs":[{"name":"","type":"bytes4[]","internalType":"bytes4[]"}],"stateMutability":"pure"},{"type":"function","name":"getLastNumbers","inputs":[],"outputs":[{"name":"","type":"uint256[5]","internalType":"uint256[5]"}],"stateMutability":"view"},{"type":"function","name":"getLeaderboard","inputs":[],"outputs":[{"name":"","type":"tuple[]","internalType":"struct BaseRaffle.Leaderboard[]","components":[{"name":"winner","type":"address","internalType":"address"},{"name":"prize","type":"uint256","internalType":"uint256"},{"name":"timestamp","type":"uint256","internalType":"uint256"}]}],"stateMutability":"view"},{"type":"function","name":"getTicketCost","inputs":[],"outputs":[{"name":"","type":"uint256","internalType":"uint256"}],"stateMutability":"view"},{"type":"function","name":"getTicketsPerUser","inputs":[{"name":"user","type":"address","internalType":"address"}],"outputs":[{"name":"","type":"uint256","internalType":"uint256"}],"stateMutability":"view"},{"type":"function","name":"getTimeLeftToDraw","inputs":[],"outputs":[{"name":"","type":"uint256","internalType":"uint256"}],"stateMutability":"view"},{"type":"function","name":"getTotalParticipants","inputs":[],"outputs":[{"name":"","type":"uint256","internalType":"uint256"}],"stateMutability":"view"},{"type":"function","name":"getTotalTickets","inputs":[],"outputs":[{"name":"","type":"uint256","internalType":"uint256"}],"stateMutability":"view"},{"type":"function","name":"getWinners","inputs":[],"outputs":[{"name":"","type":"address[3]","internalType":"address[3]"}],"stateMutability":"view"},{"type":"function","name":"initialize","inputs":[{"name":"_vrfContract","type":"address","internalType":"address"},{"name":"_vrfCoordinator","type":"address","internalType":"address"},{"name":"_distributorContract","type":"address","internalType":"address"},{"name":"_deployer","type":"address","internalType":"address"},{"name":"_bunnyToken","type":"address","internalType":"address"},{"name":"_ticketCost","type":"uint256","internalType":"uint256"}],"outputs":[],"stateMutability":"nonpayable"},{"type":"function","name":"leaderboard","inputs":[{"name":"","type":"uint256","internalType":"uint256"}],"outputs":[{"name":"winner","type":"address","internalType":"address"},{"name":"prize","type":"uint256","internalType":"uint256"},{"name":"timestamp","type":"uint256","internalType":"uint256"}],"stateMutability":"view"},{"type":"function","name":"selectWinners","inputs":[],"outputs":[],"stateMutability":"nonpayable"},{"type":"function","name":"setRaffleStatus","inputs":[{"name":"_status","type":"bool","internalType":"bool"}],"outputs":[],"stateMutability":"nonpayable"},{"type":"function","name":"setTicketCost","inputs":[{"name":"_ticketCost","type":"uint256","internalType":"uint256"}],"outputs":[],"stateMutability":"nonpayable"},{"type":"function","name":"withdrawBunny","inputs":[{"name":"to","type":"address","internalType":"address"}],"outputs":[],"stateMutability":"nonpayable"},{"type":"event","name":"RaffleEntered","inputs":[{"name":"participant","type":"address","indexed":true,"internalType":"address"},{"name":"tickets","type":"uint256","indexed":false,"internalType":"uint256"}],"anonymous":false},{"type":"event","name":"RaffleReset","inputs":[],"anonymous":false},{"type":"event","name":"RaffleWinnerSelected","inputs":[{"name":"winner","type":"address","indexed":true,"internalType":"address"},{"name":"prizeAmount","type":"uint256","indexed":false,"internalType":"uint256"}],"anonymous":false},{"type":"error","name":"AlreadyInitialized","inputs":[]},{"type":"error","name":"InvalidCaller","inputs":[]},{"type":"error","name":"InvalidParams","inputs":[]},{"type":"error","name":"InvalidTicketCount","inputs":[]},{"type":"error","name":"NoParticipants","inputs":[]},{"type":"error","name":"RaffleNotActive","inputs":[]}],"bytecode":{"object":"0x608060405260001960095534801561001657600080fd5b50611c60806100266000396000f3fe6080604052600436106101025760003560e01c80636d763a6e11610095578063a90cc44511610064578063a90cc4451461029e578063aea61b2b146102b3578063bf368399146102d3578063df15c37e14610318578063fd896f9d1461032d57600080fd5b80636d763a6e1461021c57806395b6ef0c1461023e5780639a6ed78d1461025e5780639a6f308f1461027e57600080fd5b80632e519f90116100d15780632e519f90146101a55780633057d20c146101c55780633a31a76b146101da57806362defa3b146101ef57600080fd5b8063052691591461010e57806306e8337f146101395780630a865eb9146101585780631a0de74c1461018e57600080fd5b3661010957005b600080fd5b34801561011a57600080fd5b5061012361034f565b6040516101309190611780565b60405180910390f35b34801561014557600080fd5b506003545b604051908152602001610130565b34801561016457600080fd5b5061014a6101733660046117cd565b6001600160a01b03166000908152600d602052604090205490565b34801561019a57600080fd5b506101a36103d3565b005b3480156101b157600080fd5b506101a36101c03660046117ef565b6108db565b3480156101d157600080fd5b5061014a610b21565b3480156101e657600080fd5b5060005461014a565b3480156101fb57600080fd5b5061020f61020a36600461184f565b610b5d565b6040516101309190611902565b34801561022857600080fd5b50610231610c46565b6040516101309190611933565b34801561024a57600080fd5b506101a3610259366004611995565b610cc8565b34801561026a57600080fd5b506101a3610279366004611a10565b610e2b565b34801561028a57600080fd5b506101a36102993660046117cd565b610e74565b3480156102aa57600080fd5b5060045461014a565b3480156102bf57600080fd5b506101a36102ce3660046117ef565b610f8a565b3480156102df57600080fd5b506102f36102ee3660046117ef565b610fba565b604080516001600160a01b039094168452602084019290925290820152606001610130565b34801561032457600080fd5b5061020f610ff7565b34801561033957600080fd5b5061034261103c565b6040516101309190611a2d565b6103576116b6565b600a60009054906101000a90046001600160a01b03166001600160a01b031663052691596040518163ffffffff1660e01b815260040160a060405180830381865afa1580156103aa573d6000803e3d6000fd5b505050506040513d601f19601f820116820180604052508101906103ce9190611a7b565b905090565b6003805410156103f6576040516308b6a47360e41b815260040160405180910390fd5b600047116104415760405162461bcd60e51b8152602060048201526014602482015273496e73756666696369656e742062616c616e636560601b604482015260640160405180910390fd5b6104496116d4565b600a5460408051631f0117d160e11b815290516000926001600160a01b031691633e022fa2916004808301926020929190829003018187875af1158015610494573d6000803e3d6000fd5b505050506040513d601f19601f820116820180604052508101906104b89190611af9565b600b54600a5460405163808974ff60e01b8152600481018490526001600160a01b039182166024820152929350169063808974ff90604401600060405180830381600087803b15801561050a57600080fd5b505af115801561051e573d6000803e3d6000fd5b5050600f8054604080516020808402820181019092528281526105ee9550935083018282801561057757602002820191906000526020600020905b81546001600160a01b03168152600190910190602001808311610559575b5050600a5460408051630526915960e01b815290516001600160a01b039092169450630526915993506004808201935060a092918290030181865afa1580156105c4573d6000803e3d6000fd5b505050506040513d601f19601f820116820180604052508101906105e89190611a7b565b51610b5d565b91504760006105fe600a83611b54565b9050600061060c8284611b68565b90506000606461061d836032611b7b565b6106279190611b54565b905060006064610638846019611b7b565b6106429190611b54565b905060006064610653856019611b7b565b61065d9190611b54565b88516040519192506000916001600160a01b039091169085908381818185875af1925050503d80600081146106ae576040519150601f19603f3d011682016040523d82523d6000602084013e6106b3565b606091505b505060208a01516040519192506000916001600160a01b039091169085908381818185875af1925050503d8060008114610709576040519150601f19603f3d011682016040523d82523d6000602084013e61070e565b606091505b50508a516040518781529192506001600160a01b0316907f2dc2cfc1c59467f51f1455fbb2fe510e3316850c4ed4c07d7483afdaf59217a89060200160405180910390a289600160200201516001600160a01b03167f2dc2cfc1c59467f51f1455fbb2fe510e3316850c4ed4c07d7483afdaf59217a88560405161079491815260200190565b60405180910390a260005b60028110156108b857600060405180606001604052808d84600381106107c7576107c7611b12565b60200201516001600160a01b03168152602001836000146107f657836001146107f057866107f8565b876107f8565b885b815242602091820152601080546001808201835560009290925283517f1b6847dc741a1b0cd08d278845f9d819d87b734759afb55fe2de5cb82a9ae672600390920291820180546001600160a01b0319166001600160a01b03909216919091179055918301517f1b6847dc741a1b0cd08d278845f9d819d87b734759afb55fe2de5cb82a9ae6738301556040909201517f1b6847dc741a1b0cd08d278845f9d819d87b734759afb55fe2de5cb82a9ae6749091015591909101905061079f565b506108c660058b60036116f2565b506108cf611652565b50505050505050505050565b600154600160a01b900460ff1661090557604051632ae47f7360e01b815260040160405180910390fd5b8060000361092657604051638e71bef960e01b815260040160405180910390fd5b6000816000546109369190611b7b565b905060006064610947836001611b7b565b6109519190611b54565b6001546040516370a0823160e01b81523060048201529192506000916001600160a01b03909116906370a0823190602401602060405180830381865afa15801561099f573d6000803e3d6000fd5b505050506040513d601f19601f820116820180604052508101906109c39190611af9565b6001549091506001600160a01b03166379cc6790336109e28587611b68565b6040516001600160e01b031960e085901b1681526001600160a01b0390921660048301526024820152604401600060405180830381600087803b158015610a2857600080fd5b505af1158015610a3c573d6000803e3d6000fd5b505050508360036000828254610a529190611b92565b9091555050336000908152600d60205260408120549003610ac257600f805460018101825560009182527f8d1108e10bcb7c27dddfc02ed9d693a074039d026cf4ea4240b40f7d581ac8020180546001600160a01b031916331790556004805491610abc83611ba5565b91905055505b336000908152600d602052604081208054869290610ae1908490611b92565b909155505060405184815233907fff4d34328021c85af2588171c713c19cada0a8acdc20dc117479fcd07865e6269060200160405180910390a250505050565b600062093a80600854610b349190611b92565b421015610b57574262093a80600854610b4d9190611b92565b6103ce9190611b68565b50600090565b610b656116d4565b8251610b6f6116d4565b6000610b7b8386611bbe565b9050600083610b8b600288611b54565b610b959190611bbe565b9050818103610bb75783610baa826001611b92565b610bb49190611bbe565b90505b868281518110610bc957610bc9611b12565b602002602001015183600060038110610be457610be4611b12565b6001600160a01b0390921660209290920201528651879082908110610c0b57610c0b611b12565b602002602001015183600160038110610c2657610c26611b12565b6001600160a01b0390921660209290920201525090925050505b92915050565b60606010805480602002602001604051908101604052809291908181526020016000905b82821015610cbf576000848152602090819020604080516060810182526003860290920180546001600160a01b0316835260018082015484860152600290910154918301919091529083529092019101610c6a565b50505050905090565b600a546001600160a01b031615610cf15760405162dc149f60e41b815260040160405180910390fd5b6001600160a01b0386161580610d0e57506001600160a01b038316155b80610d2057506001600160a01b038216155b80610d29575080155b15610d4757604051635435b28960e11b815260040160405180910390fd5b600a80546001600160a01b038881166001600160a01b031992831617909255600b8054888416908316179055600c8054878416908316179055426008556000839055600180546001600160a81b03191685841617600160a01b17908190556002805487851693169290921790915560095460405163095ea7b360e01b8152306004820152602481019190915291169063095ea7b3906044016020604051808303816000875af1158015610dfe573d6000803e3d6000fd5b505050506040513d601f19601f82011682018060405250810190610e229190611bd2565b50505050505050565b6002546001600160a01b03163314610e56576040516348f5c3ed60e01b815260040160405180910390fd5b60018054911515600160a01b0260ff60a01b19909216919091179055565b6002546001600160a01b03163314610e9f576040516348f5c3ed60e01b815260040160405180910390fd5b6001546040516370a0823160e01b81523060048201526000916001600160a01b0316906370a0823190602401602060405180830381865afa158015610ee8573d6000803e3d6000fd5b505050506040513d601f19601f82011682018060405250810190610f0c9190611af9565b60015460405163a9059cbb60e01b81526001600160a01b0385811660048301526024820184905292935091169063a9059cbb906044016020604051808303816000875af1158015610f61573d6000803e3d6000fd5b505050506040513d601f19601f82011682018060405250810190610f859190611bd2565b505050565b6002546001600160a01b03163314610fb5576040516348f5c3ed60e01b815260040160405180910390fd5b600055565b60108181548110610fca57600080fd5b60009182526020909120600390910201805460018201546002909201546001600160a01b03909116925083565b610fff6116d4565b6040805160608101918290529060059060039082845b81546001600160a01b03168152600190910190602001808311611015575050505050905090565b60408051600d8082526101c0820190925260609160009190602082016101a0803683375050604080518082019091526014815273656e746572526166666c652875696e743235362960601b6020909101525080519091507f2e519f900bc2180b6403d4c88dc160cdce02cddb4ed2e74bc7a68cebefd89b079082906000906110c6576110c6611b12565b6001600160e01b0319909216602092830291909101820152604080518082019091526016815275776974686472617742756e6e7928616464726573732960501b91015280517f9a6f308fb0a3ef3b3511eb0fa90b9ce001c88b0a3c504c2c1a7ed689f2c1c369908290600190811061114057611140611b12565b6001600160e01b03199092166020928302919091018201526040805180820190915260168152757365745469636b6574436f73742875696e743235362960501b91015280517faea61b2bbeae1a6cc11e2a4952b7389e4dd3e2513e7d53b5f1640bee85542cda90829060029081106111ba576111ba611b12565b60200260200101906001600160e01b03191690816001600160e01b031916815250506040518060600160405280603b8152602001611bf0603b9139805190602001208160038151811061120f5761120f611b12565b6001600160e01b031990921660209283029190910182015260408051808201909152601081526f6765744c6173744e756d62657273282960801b91015280517f05269159c67a8bc97ac73bf996ead9959470cfdc30d086639b62e4c054276abc908290600490811061128357611283611b12565b6001600160e01b031990921660209283029190910182015260408051808201909152600f81526e73656c65637457696e6e657273282960881b91015280517f1a0de74c8017611fa1084e43db874d6dfb40fe2c3c44ea8d8b9491da7527299090829060059081106112f6576112f6611b12565b6001600160e01b031990921660209283029190910182015260408051808201909152600f81526e6765745469636b6574436f7374282960881b91015280517f3a31a76b80d744089a6555030c0f114c5fa675763b9220724e5a9d3995abbede908290600690811061136957611369611b12565b6001600160e01b0319909216602092830291909101820152604080518082019091526016815275676574546f74616c5061727469636970616e7473282960501b91015280517fa90cc445df9da488b29ab695affecdcfa8fb9c3f5f466a762403f5431faacbbd90829060079081106113e3576113e3611b12565b6001600160e01b0319909216602092830291909101820152604080518082019091526011815270676574546f74616c5469636b657473282960781b91015280517f06e8337fc7abde23b3d72463b6dfb49fd1520e7e33e40a3d5149c8e65897a13c908290600890811061145857611458611b12565b6001600160e01b031990921660209283029190910182015260408051808201909152600c81526b67657457696e6e657273282960a01b91015280517fdf15c37e9a9208fbb2fa1e0fad67c628befb1d854e94048bad45dba03aa7bb3a90829060099081106114c8576114c8611b12565b6001600160e01b031990921660209283029190910182015260408051808201909152601a81527f6765745469636b6574735065725573657228616464726573732900000000000091015280517f0a865eb9e3927827030edddc2b6e5f760d4e425ea066095d8a528a072ed7b541908290600a90811061154957611549611b12565b6001600160e01b031990921660209283029190910182015260408051808201909152601381527267657454696d654c656674546f44726177282960681b91015280517f3057d20c21b1cf2aa2dbe4cdc3629ad142157d521ea5c440a691b2c939b11777908290600b9081106115c0576115c0611b12565b6001600160e01b031990921660209283029190910182015260408051808201909152601081526f6765744c6561646572626f617264282960801b91015280517f6d763a6ed2b23e19859533f69fa1111fcb6949de4abfa7d9e785757f62db362d908290600c90811061163457611634611b12565b6001600160e01b031990921660209283029190910190910152919050565b600060038190556001805460ff60a01b1916600160a01b17905542600855600481905561168190600f9061174a565b6000600d819055600e8190556040517f6cb3e4981d8a4f75b6e64343a2224ac84c88b7f6722c2ad6bd53223973abc5659190a1565b6040518060a001604052806005906020820280368337509192915050565b60405180606001604052806003906020820280368337509192915050565b826003810192821561173a579160200282015b8281111561173a57825182546001600160a01b0319166001600160a01b03909116178255602090920191600190910190611705565b5061174692915061176b565b5090565b5080546000825590600052602060002090810190611768919061176b565b50565b5b80821115611746576000815560010161176c565b60a08101818360005b60058110156117a8578151835260209283019290910190600101611789565b50505092915050565b80356001600160a01b03811681146117c857600080fd5b919050565b6000602082840312156117df57600080fd5b6117e8826117b1565b9392505050565b60006020828403121561180157600080fd5b5035919050565b634e487b7160e01b600052604160045260246000fd5b604051601f8201601f1916810167ffffffffffffffff8111828210171561184757611847611808565b604052919050565b6000806040838503121561186257600080fd5b823567ffffffffffffffff8082111561187a57600080fd5b818501915085601f83011261188e57600080fd5b81356020828211156118a2576118a2611808565b8160051b92506118b381840161181e565b82815292840181019281810190898511156118cd57600080fd5b948201945b848610156118f2576118e3866117b1565b825294820194908201906118d2565b9997909101359750505050505050565b60608101818360005b60038110156117a85781516001600160a01b031683526020928301929091019060010161190b565b602080825282518282018190526000919060409081850190868401855b8281101561198857815180516001600160a01b0316855286810151878601528501518585015260609093019290850190600101611950565b5091979650505050505050565b60008060008060008060c087890312156119ae57600080fd5b6119b7876117b1565b95506119c5602088016117b1565b94506119d3604088016117b1565b93506119e1606088016117b1565b92506119ef608088016117b1565b915060a087013590509295509295509295565b801515811461176857600080fd5b600060208284031215611a2257600080fd5b81356117e881611a02565b6020808252825182820181905260009190848201906040850190845b81811015611a6f5783516001600160e01b03191683529284019291840191600101611a49565b50909695505050505050565b600060a08284031215611a8d57600080fd5b82601f830112611a9c57600080fd5b60405160a0810181811067ffffffffffffffff82111715611abf57611abf611808565b6040528060a0840185811115611ad457600080fd5b845b81811015611aee578051835260209283019201611ad6565b509195945050505050565b600060208284031215611b0b57600080fd5b5051919050565b634e487b7160e01b600052603260045260246000fd5b634e487b7160e01b600052601260045260246000fd5b634e487b7160e01b600052601160045260246000fd5b600082611b6357611b63611b28565b500490565b81810381811115610c4057610c40611b3e565b8082028115828204841417610c4057610c40611b3e565b80820180821115610c4057610c40611b3e565b600060018201611bb757611bb7611b3e565b5060010190565b600082611bcd57611bcd611b28565b500690565b600060208284031215611be457600080fd5b81516117e881611a0256fe696e697469616c697a6528616464726573732c616464726573732c616464726573732c616464726573732c616464726573732c75696e7432353629a2646970667358221220d5ba87f9be3bbbd50fa37de34b34f86042c4938e86a2ff655aa533599cf97c5464736f6c63430008170033","linkReferences":{}},"methodIdentifiers":{"_pickThreeRandom(address[],uint256)":"62defa3b","enterRaffle(uint256)":"2e519f90","getFunctionSelectors()":"fd896f9d","getLastNumbers()":"05269159","getLeaderboard()":"6d763a6e","getTicketCost()":"3a31a76b","getTicketsPerUser(address)":"0a865eb9","getTimeLeftToDraw()":"3057d20c","getTotalParticipants()":"a90cc445","getTotalTickets()":"06e8337f","getWinners()":"df15c37e","initialize(address,address,address,address,address,uint256)":"95b6ef0c","leaderboard(uint256)":"bf368399","selectWinners()":"1a0de74c","setRaffleStatus(bool)":"9a6ed78d","setTicketCost(uint256)":"aea61b2b","withdrawBunny(address)":"9a6f308f"},"id":52}