{"abi":[{"type":"constructor","inputs":[{"name":"_tokenAddress","type":"address","internalType":"address"},{"name":"_burnPercentage","type":"uint256","internalType":"uint256"},{"name":"_owners","type":"address[5]","internalType":"address[5]"}],"stateMutability":"nonpayable"},{"type":"function","name":"burnPercentage","inputs":[],"outputs":[{"name":"","type":"uint256","internalType":"uint256"}],"stateMutability":"view"},{"type":"function","name":"executeWeeklyBurn","inputs":[],"outputs":[],"stateMutability":"nonpayable"},{"type":"function","name":"executeWeeklyBurnByAmt","inputs":[{"name":"amount","type":"uint256","internalType":"uint256"}],"outputs":[],"stateMutability":"nonpayable"},{"type":"function","name":"lastBurnTime","inputs":[],"outputs":[{"name":"","type":"uint256","internalType":"uint256"}],"stateMutability":"view"},{"type":"function","name":"owners","inputs":[{"name":"","type":"uint256","internalType":"uint256"}],"outputs":[{"name":"","type":"address","internalType":"address"}],"stateMutability":"view"},{"type":"function","name":"setBurnPercentage","inputs":[{"name":"_burnPercentage","type":"uint256","internalType":"uint256"}],"outputs":[],"stateMutability":"nonpayable"},{"type":"function","name":"token","inputs":[],"outputs":[{"name":"","type":"address","internalType":"contract ERC20Burnable"}],"stateMutability":"view"},{"type":"error","name":"InvalidPercentage","inputs":[]},{"type":"error","name":"NotAuthority","inputs":[]},{"type":"error","name":"TimeNotElapsed","inputs":[]}],"bytecode":{"object":"0x608060405260001960045534801561001657600080fd5b5060405161073238038061073283398101604081905261003591610171565b600380546001600160a01b0319166001600160a01b03851617905560028290554260015560005b60058110156100bc57600082826005811061007957610079610211565b6020908102919091015182546001808201855560009485529290932090920180546001600160a01b0319166001600160a01b03909316929092179091550161005c565b506003546004805460405163095ea7b360e01b8152309281019290925260248201526001600160a01b039091169063095ea7b3906044016020604051808303816000875af1158015610112573d6000803e3d6000fd5b505050506040513d601f19601f820116820180604052508101906101369190610227565b50505050610250565b80516001600160a01b038116811461015657600080fd5b919050565b634e487b7160e01b600052604160045260246000fd5b600080600060e0848603121561018657600080fd5b61018f8461013f565b9250602080850151925085605f8601126101a857600080fd5b60405160a081016001600160401b03811182821017156101ca576101ca61015b565b6040528060e08701888111156101df57600080fd5b604088015b81811015610202576101f58161013f565b83529184019184016101e4565b50505080925050509250925092565b634e487b7160e01b600052603260045260246000fd5b60006020828403121561023957600080fd5b8151801515811461024957600080fd5b9392505050565b6104d38061025f6000396000f3fe608060405234801561001057600080fd5b506004361061007d5760003560e01c8063c3f0d3271161005b578063c3f0d327146100cf578063e3067449146100e2578063f01f20df146100f9578063fc0c546a1461010257600080fd5b8063025e7c2714610082578063496b0991146100b257806379852c6b146100c7575b600080fd5b6100956100903660046103ed565b610115565b6040516001600160a01b0390911681526020015b60405180910390f35b6100c56100c03660046103ed565b61013f565b005b6100c5610248565b6100c56100dd3660046103ed565b610350565b6100eb60015481565b6040519081526020016100a9565b6100eb60025481565b600354610095906001600160a01b031681565b6000818154811061012557600080fd5b6000918252602090912001546001600160a01b0316905081565b62093a8060015442610151919061041c565b10156101705760405163a7e7df4f60e01b815260040160405180910390fd5b6000805b6000548110156101bd576000818154811061019157610191610435565b6000918252602090912001546001600160a01b031633036101b557600191506101bd565b600101610174565b50806101dc57604051631890934360e11b815260040160405180910390fd5b60035460405163079cc67960e41b8152306004820152602481018490526001600160a01b03909116906379cc679090604401600060405180830381600087803b15801561022857600080fd5b505af115801561023c573d6000803e3d6000fd5b50504260015550505050565b6003546040516370a0823160e01b81523060048201526000916001600160a01b0316906370a0823190602401602060405180830381865afa158015610291573d6000803e3d6000fd5b505050506040513d601f19601f820116820180604052508101906102b5919061044b565b9050801561034d576003546002546001600160a01b03909116906379cc67909030906064906102e49086610464565b6102ee919061047b565b6040516001600160e01b031960e085901b1681526001600160a01b0390921660048301526024820152604401600060405180830381600087803b15801561033457600080fd5b505af1158015610348573d6000803e3d6000fd5b505050505b50565b6000805b60005481101561039d576000818154811061037157610371610435565b6000918252602090912001546001600160a01b03163303610395576001915061039d565b600101610354565b50806103bc57604051631890934360e11b815260040160405180910390fd5b60648211806103c9575081155b156103e757604051631f3b85d360e01b815260040160405180910390fd5b50600255565b6000602082840312156103ff57600080fd5b5035919050565b634e487b7160e01b600052601160045260246000fd5b8181038181111561042f5761042f610406565b92915050565b634e487b7160e01b600052603260045260246000fd5b60006020828403121561045d57600080fd5b5051919050565b808202811582820484141761042f5761042f610406565b60008261049857634e487b7160e01b600052601260045260246000fd5b50049056fea2646970667358221220e88def4b132d8099242056b698b69439dd049551979df36973cdf1fb7721807164736f6c63430008170033","linkReferences":{}},"methodIdentifiers":{"burnPercentage()":"f01f20df","executeWeeklyBurn()":"79852c6b","executeWeeklyBurnByAmt(uint256)":"496b0991","lastBurnTime()":"e3067449","owners(uint256)":"025e7c27","setBurnPercentage(uint256)":"c3f0d327","token()":"fc0c546a"},"id":32}