{"abi":[{"type":"constructor","inputs":[{"name":"_deployer","type":"address","internalType":"address"},{"name":"_bunny","type":"address","internalType":"address"},{"name":"_tokenAmount","type":"uint256","internalType":"uint256"},{"name":"_minEthBalance","type":"uint256","internalType":"uint256"},{"name":"_waitTime","type":"uint256","internalType":"uint256"}],"stateMutability":"nonpayable"},{"type":"function","name":"allowedToWithdraw","inputs":[{"name":"_address","type":"address","internalType":"address"}],"outputs":[{"name":"","type":"bool","internalType":"bool"}],"stateMutability":"view"},{"type":"function","name":"bunny","inputs":[],"outputs":[{"name":"","type":"address","internalType":"contract IERC20"}],"stateMutability":"view"},{"type":"function","name":"minEthBalance","inputs":[],"outputs":[{"name":"","type":"uint256","internalType":"uint256"}],"stateMutability":"view"},{"type":"function","name":"requestTokens","inputs":[],"outputs":[],"stateMutability":"nonpayable"},{"type":"function","name":"setMinEthBalance","inputs":[{"name":"_minEthBalance","type":"uint256","internalType":"uint256"}],"outputs":[],"stateMutability":"nonpayable"},{"type":"function","name":"setTokenAmount","inputs":[{"name":"_tokenAmount","type":"uint256","internalType":"uint256"}],"outputs":[],"stateMutability":"nonpayable"},{"type":"function","name":"setWaitTime","inputs":[{"name":"_waitTime","type":"uint256","internalType":"uint256"}],"outputs":[],"stateMutability":"nonpayable"},{"type":"function","name":"tokenAmount","inputs":[],"outputs":[{"name":"","type":"uint256","internalType":"uint256"}],"stateMutability":"view"},{"type":"function","name":"waitTime","inputs":[],"outputs":[{"name":"","type":"uint256","internalType":"uint256"}],"stateMutability":"view"},{"type":"error","name":"InvalidEthBalance","inputs":[]},{"type":"error","name":"InvalidTokenAddress","inputs":[]},{"type":"error","name":"InvalidTokenAmount","inputs":[]},{"type":"error","name":"InvalidWaitTime","inputs":[]},{"type":"error","name":"NotAllowedToWithdraw","inputs":[]},{"type":"error","name":"NotEnoughTokens","inputs":[]},{"type":"error","name":"OnlyOwner","inputs":[]}],"bytecode":{"object":"0x608060405234801561001057600080fd5b506040516105e53803806105e583398101604081905261002f916100b0565b6001600160a01b03841661005657604051630f58058360e11b815260040160405180910390fd5b600480546001600160a01b039586166001600160a01b03199182161790915560038054969095169516949094179092556000556001556002556100fe565b80516001600160a01b03811681146100ab57600080fd5b919050565b600080600080600060a086880312156100c857600080fd5b6100d186610094565b94506100df60208701610094565b6040870151606088015160809098015196999198509695945092505050565b6104d88061010d6000396000f3fe608060405234801561001057600080fd5b50600436106100935760003560e01c80638e57eaf7116100665780638e57eaf714610108578063ab7d6cbc1461011b578063ccca123b14610132578063df351aaf1461013b578063eec7faa11461014e57600080fd5b80630749469f146100985780632d291cad146100ad578063359cf2b7146100d5578063605836cf146100dd575b600080fd5b6100ab6100a63660046103fd565b610157565b005b6100c06100bb366004610416565b6101a8565b60405190151581526020015b60405180910390f35b6100ab6101eb565b6004546100f0906001600160a01b031681565b6040516001600160a01b0390911681526020016100cc565b6100ab6101163660046103fd565b61035b565b61012460015481565b6040519081526020016100cc565b61012460025481565b6100ab6101493660046103fd565b6103ac565b61012460005481565b6003546001600160a01b0316331461018257604051635fc483c560e01b815260040160405180910390fd5b806000036101a357604051632160733960e01b815260040160405180910390fd5b600055565b6001600160a01b03811660009081526005602052604081205415806101e557506001600160a01b0382166000908152600560205260409020544210155b92915050565b6101f4336101a8565b6102115760405163a8ee2a5d60e01b815260040160405180910390fd5b600154333110156102355760405163f32139bf60e01b815260040160405180910390fd5b600054600480546040516370a0823160e01b815230928101929092526001600160a01b0316906370a0823190602401602060405180830381865afa158015610281573d6000803e3d6000fd5b505050506040513d601f19601f820116820180604052508101906102a59190610446565b10156102c4576040516308aeed0f60e21b815260040160405180910390fd5b6004805460005460405163a9059cbb60e01b8152339381019390935260248301526001600160a01b03169063a9059cbb906044016020604051808303816000875af1158015610317573d6000803e3d6000fd5b505050506040513d601f19601f8201168201806040525081019061033b919061045f565b506002546103499042610481565b33600090815260056020526040902055565b6003546001600160a01b0316331461038657604051635fc483c560e01b815260040160405180910390fd5b806000036103a75760405163f32139bf60e01b815260040160405180910390fd5b600155565b6003546001600160a01b031633146103d757604051635fc483c560e01b815260040160405180910390fd5b806000036103f857604051633b9ed25960e11b815260040160405180910390fd5b600255565b60006020828403121561040f57600080fd5b5035919050565b60006020828403121561042857600080fd5b81356001600160a01b038116811461043f57600080fd5b9392505050565b60006020828403121561045857600080fd5b5051919050565b60006020828403121561047157600080fd5b8151801515811461043f57600080fd5b808201808211156101e557634e487b7160e01b600052601160045260246000fdfea26469706673582212204b2e08546e086738f5b0e6c54478948b40f06acf5b257d5439e83f9f5dab34ad64736f6c63430008170033","linkReferences":{}},"methodIdentifiers":{"allowedToWithdraw(address)":"2d291cad","bunny()":"605836cf","minEthBalance()":"ab7d6cbc","requestTokens()":"359cf2b7","setMinEthBalance(uint256)":"8e57eaf7","setTokenAmount(uint256)":"0749469f","setWaitTime(uint256)":"df351aaf","tokenAmount()":"eec7faa1","waitTime()":"ccca123b"},"id":61}