{"abi":[{"type":"constructor","inputs":[{"name":"_router","type":"address","internalType":"address"},{"name":"_cashBunny","type":"address","internalType":"address"},{"name":"_internalWallets","type":"address[5]","internalType":"address[5]"},{"name":"_extraSwapAuthority","type":"address","internalType":"address"}],"stateMutability":"nonpayable"},{"type":"receive","stateMutability":"payable"},{"type":"function","name":"extraSwapAuthority","inputs":[],"outputs":[{"name":"","type":"address","internalType":"address"}],"stateMutability":"view"},{"type":"function","name":"handleSwapAllAndDistribute","inputs":[],"outputs":[],"stateMutability":"nonpayable"},{"type":"function","name":"handleSwapAmtAndDistribute","inputs":[{"name":"_amount","type":"uint256","internalType":"uint256"}],"outputs":[],"stateMutability":"nonpayable"},{"type":"function","name":"owner","inputs":[],"outputs":[{"name":"","type":"address","internalType":"address"}],"stateMutability":"view"},{"type":"function","name":"raffleContract","inputs":[],"outputs":[{"name":"","type":"address","internalType":"address"}],"stateMutability":"view"},{"type":"function","name":"renounceOwnership","inputs":[],"outputs":[],"stateMutability":"nonpayable"},{"type":"function","name":"setRaffleContract","inputs":[{"name":"_raffleContract","type":"address","internalType":"address"}],"outputs":[],"stateMutability":"nonpayable"},{"type":"function","name":"transferOwnership","inputs":[{"name":"newOwner","type":"address","internalType":"address"}],"outputs":[],"stateMutability":"nonpayable"},{"type":"event","name":"OwnershipTransferred","inputs":[{"name":"previousOwner","type":"address","indexed":true,"internalType":"address"},{"name":"newOwner","type":"address","indexed":true,"internalType":"address"}],"anonymous":false}],"bytecode":{"object":"0x6080604052600019600a553480156200001757600080fd5b5060405162000e8238038062000e828339810160408190526200003a9162000218565b620000453362000121565b600180546001600160a01b038087166001600160a01b0319928316179092556002805492861692909116919091179055620000836005838162000171565b50600480546001600160a01b0319166001600160a01b03838116919091178255600254600a5460405163095ea7b360e01b8152888416948101949094526024840152169063095ea7b3906044016020604051808303816000875af1158015620000f0573d6000803e3d6000fd5b505050506040513d601f19601f82011682018060405250810190620001169190620002de565b505050505062000309565b600080546001600160a01b038381166001600160a01b0319831681178455604051919092169283917f8be0079c531659141344cd1fd0a4f28419497f9722a3daafe3b4186f6b6457e09190a35050565b8260058101928215620001bc579160200282015b82811115620001bc57825182546001600160a01b0319166001600160a01b0390911617825560209092019160019091019062000185565b50620001ca929150620001ce565b5090565b5b80821115620001ca5760008155600101620001cf565b80516001600160a01b0381168114620001fd57600080fd5b919050565b634e487b7160e01b600052604160045260246000fd5b60008060008061010085870312156200023057600080fd5b6200023b85620001e5565b935060206200024c818701620001e5565b935086605f8701126200025e57600080fd5b60405160a081016001600160401b038111828210171562000283576200028362000202565b6040528060e08801898111156200029957600080fd5b604089015b81811015620002c057620002b281620001e5565b83529184019184016200029e565b50829550620002cf81620001e5565b94505050505092959194509250565b600060208284031215620002f157600080fd5b815180151581146200030257600080fd5b9392505050565b610b6980620003196000396000f3fe60806040526004361061007e5760003560e01c8063715018a61161004e578063715018a61461012e5780638da5cb5b14610143578063a29ce05d14610161578063f2fde38b1461017657600080fd5b806256c08414610092578063371e0b6c146100b25780635d7916ed146100ee5780635f7857201461010e57600080fd5b3661008d5761008b610196565b005b600080fd5b34801561009e57600080fd5b5061008b6100ad36600461099a565b61027f565b3480156100be57600080fd5b506004546100d2906001600160a01b031681565b6040516001600160a01b03909116815260200160405180910390f35b3480156100fa57600080fd5b506003546100d2906001600160a01b031681565b34801561011a57600080fd5b5061008b6101293660046109be565b6102cb565b34801561013a57600080fd5b5061008b610595565b34801561014f57600080fd5b506000546001600160a01b03166100d2565b34801561016d57600080fd5b5061008b6105cb565b34801561018257600080fd5b5061008b61019136600461099a565b61077c565b47806101e05760405162461bcd60e51b81526020600482015260146024820152734e6f2045544820746f206469737472696275746560601b60448201526064015b60405180910390fd5b60006101ee600560016109ed565b6101f89083610a06565b905060005b600581101561026457600060058281811061021a5761021a610a28565b01546001600160a01b03161461025257610252826005836005811061024157610241610a28565b01546001600160a01b031690610817565b8061025c81610a3e565b9150506101fd565b5060035461027b906001600160a01b031682610817565b5050565b6000546001600160a01b031633146102a95760405162461bcd60e51b81526004016101d790610a57565b600380546001600160a01b0319166001600160a01b0392909216919091179055565b6000805b600581101561031757600581600581106102eb576102eb610a28565b01546001600160a01b031633036103055760019150610317565b8061030f81610a3e565b9150506102cf565b506000546001600160a01b031633148061033b57506004546001600160a01b031633145b806103435750805b61038f5760405162461bcd60e51b815260206004820152601860248201527f43616c6c6572206973206e6f7420617574686f72697a6564000000000000000060448201526064016101d7565b604080516002808252606082018352600092602083019080368337505060025482519293506001600160a01b0316918391506000906103d0576103d0610a28565b6001600160a01b03928316602091820292909201810191909152600154604080516315ab88c960e31b81529051919093169263ad5c46489260048083019391928290030181865afa158015610429573d6000803e3d6000fd5b505050506040513d601f19601f8201168201806040525081019061044d9190610a8c565b8160018151811061046057610460610a28565b6001600160a01b0392831660209182029290920101526002546040516370a0823160e01b815230600482015260009291909116906370a0823190602401602060405180830381865afa1580156104ba573d6000803e3d6000fd5b505050506040513d601f19601f820116820180604052508101906104de9190610aa9565b9050838110156105245760405162461bcd60e51b81526020600482015260116024820152706e6f7420656e6f756768202442554e4e5960781b60448201526064016101d7565b60015460405163791ac94760e01b81526001600160a01b039091169063791ac9479061055d908790600090879030904290600401610ac2565b600060405180830381600087803b15801561057757600080fd5b505af115801561058b573d6000803e3d6000fd5b5050505050505050565b6000546001600160a01b031633146105bf5760405162461bcd60e51b81526004016101d790610a57565b6105c96000610935565b565b604080516002808252606082018352600092602083019080368337505060025482519293506001600160a01b03169183915060009061060c5761060c610a28565b6001600160a01b03928316602091820292909201810191909152600154604080516315ab88c960e31b81529051919093169263ad5c46489260048083019391928290030181865afa158015610665573d6000803e3d6000fd5b505050506040513d601f19601f820116820180604052508101906106899190610a8c565b8160018151811061069c5761069c610a28565b6001600160a01b0392831660209182029290920101526001546002546040516370a0823160e01b81523060048201529183169263791ac947929116906370a0823190602401602060405180830381865afa1580156106fe573d6000803e3d6000fd5b505050506040513d601f19601f820116820180604052508101906107229190610aa9565b60008430426040518663ffffffff1660e01b8152600401610747959493929190610ac2565b600060405180830381600087803b15801561076157600080fd5b505af1158015610775573d6000803e3d6000fd5b5050505050565b6000546001600160a01b031633146107a65760405162461bcd60e51b81526004016101d790610a57565b6001600160a01b03811661080b5760405162461bcd60e51b815260206004820152602660248201527f4f776e61626c653a206e6577206f776e657220697320746865207a65726f206160448201526564647265737360d01b60648201526084016101d7565b61081481610935565b50565b804710156108675760405162461bcd60e51b815260206004820152601d60248201527f416464726573733a20696e73756666696369656e742062616c616e636500000060448201526064016101d7565b6000826001600160a01b03168260405160006040518083038185875af1925050503d80600081146108b4576040519150601f19603f3d011682016040523d82523d6000602084013e6108b9565b606091505b50509050806109305760405162461bcd60e51b815260206004820152603a60248201527f416464726573733a20756e61626c6520746f2073656e642076616c75652c207260448201527f6563697069656e74206d6179206861766520726576657274656400000000000060648201526084016101d7565b505050565b600080546001600160a01b038381166001600160a01b0319831681178455604051919092169283917f8be0079c531659141344cd1fd0a4f28419497f9722a3daafe3b4186f6b6457e09190a35050565b6001600160a01b038116811461081457600080fd5b6000602082840312156109ac57600080fd5b81356109b781610985565b9392505050565b6000602082840312156109d057600080fd5b5035919050565b634e487b7160e01b600052601160045260246000fd5b80820180821115610a0057610a006109d7565b92915050565b600082610a2357634e487b7160e01b600052601260045260246000fd5b500490565b634e487b7160e01b600052603260045260246000fd5b600060018201610a5057610a506109d7565b5060010190565b6020808252818101527f4f776e61626c653a2063616c6c6572206973206e6f7420746865206f776e6572604082015260600190565b600060208284031215610a9e57600080fd5b81516109b781610985565b600060208284031215610abb57600080fd5b5051919050565b600060a082018783526020878185015260a0604085015281875180845260c086019150828901935060005b81811015610b125784516001600160a01b031683529383019391830191600101610aed565b50506001600160a01b0396909616606085015250505060800152939250505056fea26469706673582212208f2012740606f0fbe668594c25ae929ddd21e9b5e9fa755f988618bb6e0afeb464736f6c63430008130033","linkReferences":{}},"methodIdentifiers":{"extraSwapAuthority()":"371e0b6c","handleSwapAllAndDistribute()":"a29ce05d","handleSwapAmtAndDistribute(uint256)":"5f785720","owner()":"8da5cb5b","raffleContract()":"5d7916ed","renounceOwnership()":"715018a6","setRaffleContract(address)":"0056c084","transferOwnership(address)":"f2fde38b"},"id":23}