{"abi":[{"type":"constructor","inputs":[{"name":"_tokenPrice","type":"uint256","internalType":"uint256"},{"name":"_endTime","type":"uint256","internalType":"uint256"}],"stateMutability":"nonpayable"},{"type":"function","name":"allowance","inputs":[{"name":"owner","type":"address","internalType":"address"},{"name":"spender","type":"address","internalType":"address"}],"outputs":[{"name":"","type":"uint256","internalType":"uint256"}],"stateMutability":"view"},{"type":"function","name":"approve","inputs":[{"name":"spender","type":"address","internalType":"address"},{"name":"amount","type":"uint256","internalType":"uint256"}],"outputs":[{"name":"","type":"bool","internalType":"bool"}],"stateMutability":"nonpayable"},{"type":"function","name":"balanceOf","inputs":[{"name":"account","type":"address","internalType":"address"}],"outputs":[{"name":"","type":"uint256","internalType":"uint256"}],"stateMutability":"view"},{"type":"function","name":"contribute","inputs":[{"name":"referralCode","type":"bytes32","internalType":"bytes32"}],"outputs":[],"stateMutability":"payable"},{"type":"function","name":"contributions","inputs":[{"name":"","type":"address","internalType":"address"}],"outputs":[{"name":"","type":"uint256","internalType":"uint256"}],"stateMutability":"view"},{"type":"function","name":"decimals","inputs":[],"outputs":[{"name":"","type":"uint8","internalType":"uint8"}],"stateMutability":"view"},{"type":"function","name":"decreaseAllowance","inputs":[{"name":"spender","type":"address","internalType":"address"},{"name":"subtractedValue","type":"uint256","internalType":"uint256"}],"outputs":[{"name":"","type":"bool","internalType":"bool"}],"stateMutability":"nonpayable"},{"type":"function","name":"endTime","inputs":[],"outputs":[{"name":"","type":"uint256","internalType":"uint256"}],"stateMutability":"view"},{"type":"function","name":"finalize","inputs":[],"outputs":[],"stateMutability":"nonpayable"},{"type":"function","name":"finalized","inputs":[],"outputs":[{"name":"","type":"bool","internalType":"bool"}],"stateMutability":"view"},{"type":"function","name":"getContribution","inputs":[{"name":"participant","type":"address","internalType":"address"}],"outputs":[{"name":"","type":"uint256","internalType":"uint256"}],"stateMutability":"view"},{"type":"function","name":"getParticipantCount","inputs":[],"outputs":[{"name":"","type":"uint256","internalType":"uint256"}],"stateMutability":"view"},{"type":"function","name":"getReferralUserCount","inputs":[{"name":"referralCode","type":"bytes32","internalType":"bytes32"}],"outputs":[{"name":"","type":"uint256","internalType":"uint256"}],"stateMutability":"view"},{"type":"function","name":"getRemainingTime","inputs":[],"outputs":[{"name":"","type":"uint256","internalType":"uint256"}],"stateMutability":"view"},{"type":"function","name":"getTotalRaised","inputs":[],"outputs":[{"name":"","type":"uint256","internalType":"uint256"}],"stateMutability":"view"},{"type":"function","name":"getTotalReferredByCode","inputs":[{"name":"referralCode","type":"bytes32","internalType":"bytes32"}],"outputs":[{"name":"","type":"uint256","internalType":"uint256"}],"stateMutability":"view"},{"type":"function","name":"increaseAllowance","inputs":[{"name":"spender","type":"address","internalType":"address"},{"name":"addedValue","type":"uint256","internalType":"uint256"}],"outputs":[{"name":"","type":"bool","internalType":"bool"}],"stateMutability":"nonpayable"},{"type":"function","name":"maxContribution","inputs":[],"outputs":[{"name":"","type":"uint256","internalType":"uint256"}],"stateMutability":"view"},{"type":"function","name":"name","inputs":[],"outputs":[{"name":"","type":"string","internalType":"string"}],"stateMutability":"view"},{"type":"function","name":"owner","inputs":[],"outputs":[{"name":"","type":"address","internalType":"address"}],"stateMutability":"view"},{"type":"function","name":"participantCount","inputs":[],"outputs":[{"name":"","type":"uint256","internalType":"uint256"}],"stateMutability":"view"},{"type":"function","name":"referralContributions","inputs":[{"name":"","type":"bytes32","internalType":"bytes32"}],"outputs":[{"name":"","type":"uint256","internalType":"uint256"}],"stateMutability":"view"},{"type":"function","name":"referralOwners","inputs":[{"name":"","type":"bytes32","internalType":"bytes32"}],"outputs":[{"name":"","type":"address","internalType":"address"}],"stateMutability":"view"},{"type":"function","name":"referralUserCount","inputs":[{"name":"","type":"bytes32","internalType":"bytes32"}],"outputs":[{"name":"","type":"uint256","internalType":"uint256"}],"stateMutability":"view"},{"type":"function","name":"setEndTime","inputs":[{"name":"_endTime","type":"uint256","internalType":"uint256"}],"outputs":[],"stateMutability":"nonpayable"},{"type":"function","name":"setTokenPrice","inputs":[{"name":"_tokenPrice","type":"uint256","internalType":"uint256"}],"outputs":[],"stateMutability":"nonpayable"},{"type":"function","name":"startTime","inputs":[],"outputs":[{"name":"","type":"uint256","internalType":"uint256"}],"stateMutability":"view"},{"type":"function","name":"symbol","inputs":[],"outputs":[{"name":"","type":"string","internalType":"string"}],"stateMutability":"view"},{"type":"function","name":"token","inputs":[],"outputs":[{"name":"","type":"address","internalType":"contract BEP20"}],"stateMutability":"view"},{"type":"function","name":"tokenPrice","inputs":[],"outputs":[{"name":"","type":"uint256","internalType":"uint256"}],"stateMutability":"view"},{"type":"function","name":"totalRaised","inputs":[],"outputs":[{"name":"","type":"uint256","internalType":"uint256"}],"stateMutability":"view"},{"type":"function","name":"totalSupply","inputs":[],"outputs":[{"name":"","type":"uint256","internalType":"uint256"}],"stateMutability":"view"},{"type":"function","name":"transfer","inputs":[{"name":"recipient","type":"address","internalType":"address"},{"name":"amount","type":"uint256","internalType":"uint256"}],"outputs":[{"name":"","type":"bool","internalType":"bool"}],"stateMutability":"nonpayable"},{"type":"function","name":"transferFrom","inputs":[{"name":"sender","type":"address","internalType":"address"},{"name":"recipient","type":"address","internalType":"address"},{"name":"amount","type":"uint256","internalType":"uint256"}],"outputs":[{"name":"","type":"bool","internalType":"bool"}],"stateMutability":"nonpayable"},{"type":"function","name":"withdrawFunds","inputs":[{"name":"recipient","type":"address","internalType":"address"}],"outputs":[],"stateMutability":"nonpayable"},{"type":"event","name":"Approval","inputs":[{"name":"owner","type":"address","indexed":true,"internalType":"address"},{"name":"spender","type":"address","indexed":true,"internalType":"address"},{"name":"value","type":"uint256","indexed":false,"internalType":"uint256"}],"anonymous":false},{"type":"event","name":"Contribution","inputs":[{"name":"contributor","type":"address","indexed":true,"internalType":"address"},{"name":"amount","type":"uint256","indexed":false,"internalType":"uint256"},{"name":"referralCode","type":"bytes32","indexed":false,"internalType":"bytes32"}],"anonymous":false},{"type":"event","name":"Finalized","inputs":[{"name":"totalRaised","type":"uint256","indexed":false,"internalType":"uint256"}],"anonymous":false},{"type":"event","name":"FundsWithdrawn","inputs":[{"name":"recipient","type":"address","indexed":true,"internalType":"address"},{"name":"amount","type":"uint256","indexed":false,"internalType":"uint256"}],"anonymous":false},{"type":"event","name":"Transfer","inputs":[{"name":"from","type":"address","indexed":true,"internalType":"address"},{"name":"to","type":"address","indexed":true,"internalType":"address"},{"name":"value","type":"uint256","indexed":false,"internalType":"uint256"}],"anonymous":false},{"type":"error","name":"CannotUseOwnReferralCode","inputs":[]},{"type":"error","name":"ContributionExceedsLimit","inputs":[]},{"type":"error","name":"ContributionTooLow","inputs":[]},{"type":"error","name":"InvalidRecipient","inputs":[]},{"type":"error","name":"NotContractOwner","inputs":[]},{"type":"error","name":"RecipientInterfaceNotSupported","inputs":[]},{"type":"error","name":"ReentrancyGuardReentrantCall","inputs":[]},{"type":"error","name":"SaleEnded","inputs":[]},{"type":"error","name":"SaleNotActive","inputs":[]}],"bytecode":{"object":"0x6080604052674563918244f40000600755426008553480156200002157600080fd5b506040516200175c3803806200175c83398101604081905262000044916200014f565b60408051808201825260098152682a32b9ba2a37b5b2b760b91b602080830191909152825180840190935260038352621514d560ea1b9083015260016000559060046200009283826200021b565b506005620000a182826200021b565b5050600680546001600160a01b0319163317905550600a8290556009819055620000f130620000ce601290565b620000db90600a620003fc565b620000eb90633b9aca0062000414565b620000f9565b50506200042e565b60038190556001600160a01b0382166000818152600160209081526040808320859055518481527fddf252ad1be2c89b69c2b068fc378daa952ba7f163c4a11628f55a4df523b3ef910160405180910390a35050565b600080604083850312156200016357600080fd5b505080516020909101519092909150565b634e487b7160e01b600052604160045260246000fd5b600181811c908216806200019f57607f821691505b602082108103620001c057634e487b7160e01b600052602260045260246000fd5b50919050565b601f82111562000216576000816000526020600020601f850160051c81016020861015620001f15750805b601f850160051c820191505b818110156200021257828155600101620001fd565b5050505b505050565b81516001600160401b0381111562000237576200023762000174565b6200024f816200024884546200018a565b84620001c6565b602080601f8311600181146200028757600084156200026e5750858301515b600019600386901b1c1916600185901b17855562000212565b600085815260208120601f198616915b82811015620002b85788860151825594840194600190910190840162000297565b5085821015620002d75787850151600019600388901b60f8161c191681555b5050505050600190811b01905550565b634e487b7160e01b600052601160045260246000fd5b600181815b808511156200033e578160001904821115620003225762000322620002e7565b808516156200033057918102915b93841c939080029062000302565b509250929050565b6000826200035757506001620003f6565b816200036657506000620003f6565b81600181146200037f57600281146200038a57620003aa565b6001915050620003f6565b60ff8411156200039e576200039e620002e7565b50506001821b620003f6565b5060208310610133831016604e8410600b8410161715620003cf575081810a620003f6565b620003db8383620002fd565b8060001904821115620003f257620003f2620002e7565b0290505b92915050565b60006200040d60ff84168362000346565b9392505050565b8082028115828204841417620003f657620003f6620002e7565b61131e806200043e6000396000f3fe6080604052600436106102045760003560e01c806389cc81c111610118578063ad605729116100a0578063d9b28bad1161006f578063d9b28bad146105e7578063dd2720e514610614578063dd62ed3e14610641578063efb98bcf14610687578063fc0c546a1461069c57600080fd5b8063ad60572914610582578063b3f05b9714610597578063c5c4744c146105b1578063ccb98ffc146105c757600080fd5b80639f550293116100e75780639f550293146104d35780639f5bba58146104e8578063a457c2d714610515578063a5727e2514610535578063a9059cbb1461056257600080fd5b806389cc81c1146104755780638d3d6576146104885780638da5cb5b1461049e57806395d89b41146104be57600080fd5b8063395093511161019b5780636a61e5fc1161016a5780636a61e5fc146103a557806370a08231146103c557806378e97925146103fb5780637ff9b59614610411578063825398101461042757600080fd5b8063395093511461032157806342e94c90146103415780634bb278f31461036e57806368742da61461038557600080fd5b806323b872dd116101d757806323b872dd146102b9578063313ce567146102d95780633197cbb6146102f5578063362f04c01461030b57600080fd5b806306fdde0314610209578063095ea7b31461023457806318160ddd1461026457806321eff7fc14610283575b600080fd5b34801561021557600080fd5b5061021e6106c1565b60405161022b91906110d8565b60405180910390f35b34801561024057600080fd5b5061025461024f366004611143565b610753565b604051901515815260200161022b565b34801561027057600080fd5b506003545b60405190815260200161022b565b34801561028f57600080fd5b5061027561029e36600461116d565b6001600160a01b03166000908152600e602052604090205490565b3480156102c557600080fd5b506102546102d436600461118f565b61076a565b3480156102e557600080fd5b506040516012815260200161022b565b34801561030157600080fd5b5061027560095481565b34801561031757600080fd5b50610275600c5481565b34801561032d57600080fd5b5061025461033c366004611143565b610820565b34801561034d57600080fd5b5061027561035c36600461116d565b600e6020526000908152604090205481565b34801561037a57600080fd5b50610383610857565b005b34801561039157600080fd5b506103836103a036600461116d565b6108f0565b3480156103b157600080fd5b506103836103c03660046111cb565b6109f6565b3480156103d157600080fd5b506102756103e036600461116d565b6001600160a01b031660009081526001602052604090205490565b34801561040757600080fd5b5061027560085481565b34801561041d57600080fd5b50610275600a5481565b34801561043357600080fd5b5061045d6104423660046111cb565b6011602052600090815260409020546001600160a01b031681565b6040516001600160a01b03909116815260200161022b565b6103836104833660046111cb565b610a26565b34801561049457600080fd5b5061027560075481565b3480156104aa57600080fd5b5060065461045d906001600160a01b031681565b3480156104ca57600080fd5b5061021e610ca7565b3480156104df57600080fd5b50600b54610275565b3480156104f457600080fd5b506102756105033660046111cb565b60009081526012602052604090205490565b34801561052157600080fd5b50610254610530366004611143565b610cb6565b34801561054157600080fd5b506102756105503660046111cb565b60009081526010602052604090205490565b34801561056e57600080fd5b5061025461057d366004611143565b610d51565b34801561058e57600080fd5b50600c54610275565b3480156105a357600080fd5b50600d546102549060ff1681565b3480156105bd57600080fd5b50610275600b5481565b3480156105d357600080fd5b506103836105e23660046111cb565b610d5e565b3480156105f357600080fd5b506102756106023660046111cb565b60106020526000908152604090205481565b34801561062057600080fd5b5061027561062f3660046111cb565b60126020526000908152604090205481565b34801561064d57600080fd5b5061027561065c3660046111e4565b6001600160a01b03918216600090815260026020908152604080832093909416825291909152205490565b34801561069357600080fd5b50610275610d8e565b3480156106a857600080fd5b50600d5461045d9061010090046001600160a01b031681565b6060600480546106d090611217565b80601f01602080910402602001604051908101604052809291908181526020018280546106fc90611217565b80156107495780601f1061071e57610100808354040283529160200191610749565b820191906000526020600020905b81548152906001019060200180831161072c57829003601f168201915b5050505050905090565b6000610760338484610db2565b5060015b92915050565b6000610777848484610ed6565b6001600160a01b0384166000908152600260209081526040808320338452909152902054828110156108015760405162461bcd60e51b815260206004820152602860248201527f42455032303a207472616e7366657220616d6f756e74206578636565647320616044820152676c6c6f77616e636560c01b60648201526084015b60405180910390fd5b61081585336108108685611267565b610db2565b506001949350505050565b3360008181526002602090815260408083206001600160a01b0387168452909152812054909161076091859061081090869061127a565b6006546001600160a01b031633146108825760405163bfcafd3760e01b815260040160405180910390fd5b60095442116108a45760405163b7b2409760e01b815260040160405180910390fd5b600d805460ff19166001179055600b546040517f839cf22e1ba87ce2f5b9bbf46cf0175a09eed52febdfaac8852478e68203c763916108e69190815260200190565b60405180910390a1565b6006546001600160a01b0316331461091b5760405163bfcafd3760e01b815260040160405180910390fd5b6109236110ae565b60095442116109455760405163b7b2409760e01b815260040160405180910390fd5b6001600160a01b03811661096c57604051634e46966960e11b815260040160405180910390fd5b60405147906001600160a01b0383169082156108fc029083906000818181858888f193505050501580156109a4573d6000803e3d6000fd5b50816001600160a01b03167feaff4b37086828766ad3268786972c0cd24259d4c87a80f9d3963a3c3d999b0d826040516109e091815260200190565b60405180910390a2506109f36001600055565b50565b6006546001600160a01b03163314610a215760405163bfcafd3760e01b815260040160405180910390fd5b600a55565b600854421015610a495760405163b7b2409760e01b815260040160405180910390fd5b600954421115610a6c57604051630bd8a3eb60e01b815260040160405180910390fd5b600754341115610a8f5760405163022943c360e01b815260040160405180910390fd5b336000908152600e602052604090205415610ae25760405162461bcd60e51b8152602060048201526013602482015272105b1c9958591e4818dbdb9d1c9a589d5d1959606a1b60448201526064016107f8565b8015610b69576000818152601160205260409020546001600160a01b0316338103610b20576040516375d757b560e11b815260040160405180910390fd5b60008281526010602052604081208054349290610b3e90849061127a565b90915550506000828152601260205260408120805460019290610b6290849061127a565b9091555050505b336000908152600f60205260408120805460ff19166001908117909155600c805491929091610b9990849061127a565b9091555050336000908152600e602052604081203490819055600b805491929091610bc590849061127a565b9091555050600a54600090610be234670de0b6b3a764000061128d565b610bec91906112a4565b600d5460405163a9059cbb60e01b81523360048201526024810183905291925061010090046001600160a01b03169063a9059cbb906044016020604051808303816000875af1158015610c43573d6000803e3d6000fd5b505050506040513d601f19601f82011682018060405250810190610c6791906112c6565b50604080513481526020810184905233917f37d51aa19d01ec14316772b09ba06058b233403c60b7e9e8d9986c34391bec16910160405180910390a25050565b6060600580546106d090611217565b3360009081526002602090815260408083206001600160a01b038616845290915281205482811015610d385760405162461bcd60e51b815260206004820152602560248201527f42455032303a2064656372656173656420616c6c6f77616e63652062656c6f77604482015264207a65726f60d81b60648201526084016107f8565b610d4733856108108685611267565b5060019392505050565b6000610760338484610ed6565b6006546001600160a01b03163314610d895760405163bfcafd3760e01b815260040160405180910390fd5b600955565b60006009544210610d9f5750600090565b42600954610dad9190611267565b905090565b6001600160a01b038316610e145760405162461bcd60e51b8152602060048201526024808201527f42455032303a20617070726f76652066726f6d20746865207a65726f206164646044820152637265737360e01b60648201526084016107f8565b6001600160a01b038216610e755760405162461bcd60e51b815260206004820152602260248201527f42455032303a20617070726f766520746f20746865207a65726f206164647265604482015261737360f01b60648201526084016107f8565b6001600160a01b0383811660008181526002602090815260408083209487168084529482529182902085905590518481527f8c5be1e5ebec7d5bd14f71427d1e84f3dd0314c0f7b2291e5b200ac8c7c3b925910160405180910390a3505050565b6001600160a01b038316610f3a5760405162461bcd60e51b815260206004820152602560248201527f42455032303a207472616e736665722066726f6d20746865207a65726f206164604482015264647265737360d81b60648201526084016107f8565b6001600160a01b038216610f9c5760405162461bcd60e51b815260206004820152602360248201527f42455032303a207472616e7366657220746f20746865207a65726f206164647260448201526265737360e81b60648201526084016107f8565b6001600160a01b038316600090815260016020526040902054818110156110145760405162461bcd60e51b815260206004820152602660248201527f42455032303a207472616e7366657220616d6f756e7420657863656564732062604482015265616c616e636560d01b60648201526084016107f8565b61101e8282611267565b6001600160a01b03808616600090815260016020526040808220939093559085168152908120805484929061105490849061127a565b92505081905550826001600160a01b0316846001600160a01b03167fddf252ad1be2c89b69c2b068fc378daa952ba7f163c4a11628f55a4df523b3ef846040516110a091815260200190565b60405180910390a350505050565b6002600054036110d157604051633ee5aeb560e01b815260040160405180910390fd5b6002600055565b60006020808352835180602085015260005b81811015611106578581018301518582016040015282016110ea565b506000604082860101526040601f19601f8301168501019250505092915050565b80356001600160a01b038116811461113e57600080fd5b919050565b6000806040838503121561115657600080fd5b61115f83611127565b946020939093013593505050565b60006020828403121561117f57600080fd5b61118882611127565b9392505050565b6000806000606084860312156111a457600080fd5b6111ad84611127565b92506111bb60208501611127565b9150604084013590509250925092565b6000602082840312156111dd57600080fd5b5035919050565b600080604083850312156111f757600080fd5b61120083611127565b915061120e60208401611127565b90509250929050565b600181811c9082168061122b57607f821691505b60208210810361124b57634e487b7160e01b600052602260045260246000fd5b50919050565b634e487b7160e01b600052601160045260246000fd5b8181038181111561076457610764611251565b8082018082111561076457610764611251565b808202811582820484141761076457610764611251565b6000826112c157634e487b7160e01b600052601260045260246000fd5b500490565b6000602082840312156112d857600080fd5b8151801515811461118857600080fdfea264697066735822122010ad57f6e2ca55d30cd73ebb9b85a5abe0c9d55350c0eff574938030cd7defb664736f6c63430008170033","linkReferences":{}},"methodIdentifiers":{"allowance(address,address)":"dd62ed3e","approve(address,uint256)":"095ea7b3","balanceOf(address)":"70a08231","contribute(bytes32)":"89cc81c1","contributions(address)":"42e94c90","decimals()":"313ce567","decreaseAllowance(address,uint256)":"a457c2d7","endTime()":"3197cbb6","finalize()":"4bb278f3","finalized()":"b3f05b97","getContribution(address)":"21eff7fc","getParticipantCount()":"ad605729","getReferralUserCount(bytes32)":"9f5bba58","getRemainingTime()":"efb98bcf","getTotalRaised()":"9f550293","getTotalReferredByCode(bytes32)":"a5727e25","increaseAllowance(address,uint256)":"39509351","maxContribution()":"8d3d6576","name()":"06fdde03","owner()":"8da5cb5b","participantCount()":"362f04c0","referralContributions(bytes32)":"d9b28bad","referralOwners(bytes32)":"82539810","referralUserCount(bytes32)":"dd2720e5","setEndTime(uint256)":"ccb98ffc","setTokenPrice(uint256)":"6a61e5fc","startTime()":"78e97925","symbol()":"95d89b41","token()":"fc0c546a","tokenPrice()":"7ff9b596","totalRaised()":"c5c4744c","totalSupply()":"18160ddd","transfer(address,uint256)":"a9059cbb","transferFrom(address,address,uint256)":"23b872dd","withdrawFunds(address)":"68742da6"},"id":21}