{"abi":[{"type":"constructor","inputs":[{"name":"_owner","type":"address","internalType":"address"}],"stateMutability":"nonpayable"},{"type":"function","name":"addOwner","inputs":[{"name":"_owner","type":"address","internalType":"address"}],"outputs":[],"stateMutability":"nonpayable"},{"type":"function","name":"clearBlacklist","inputs":[{"name":"token","type":"address","internalType":"address"}],"outputs":[],"stateMutability":"nonpayable"},{"type":"function","name":"owners","inputs":[{"name":"","type":"uint256","internalType":"uint256"}],"outputs":[{"name":"","type":"address","internalType":"address"}],"stateMutability":"view"},{"type":"function","name":"transfer","inputs":[{"name":"token","type":"address","internalType":"address"},{"name":"to","type":"address","internalType":"address"},{"name":"amount","type":"uint256","internalType":"uint256"}],"outputs":[],"stateMutability":"nonpayable"}],"bytecode":{"object":"0x608060405234801561001057600080fd5b5060405161061d38038061061d83398101604081905261002f91610081565b600080546001810182559080527f290decd9548b62a8d60345a988386fc84ba6bc95484008f6362f93160ef3e5630180546001600160a01b0319166001600160a01b03929092169190911790556100b1565b60006020828403121561009357600080fd5b81516001600160a01b03811681146100aa57600080fd5b9392505050565b61055d806100c06000396000f3fe608060405234801561001057600080fd5b506004361061004c5760003560e01c8063025e7c27146100515780637065cb4814610080578063beabacc814610095578063e424c385146100a8575b600080fd5b61006461005f3660046103f4565b6100bb565b6040516001600160a01b03909116815260200160405180910390f35b61009361008e366004610429565b6100e5565b005b6100936100a336600461044b565b6101a9565b6100936100b6366004610429565b610355565b600081815481106100cb57600080fd5b6000918252602090912001546001600160a01b0316905081565b6000805b600054811015610132576000818154811061010657610106610487565b6000918252602090912001546001600160a01b0316330361012a5760019150610132565b6001016100e9565b50806101595760405162461bcd60e51b81526004016101509061049d565b60405180910390fd5b50600080546001810182559080527f290decd9548b62a8d60345a988386fc84ba6bc95484008f6362f93160ef3e5630180546001600160a01b0319166001600160a01b0392909216919091179055565b6000805b6000548110156101f657600081815481106101ca576101ca610487565b6000918252602090912001546001600160a01b031633036101ee57600191506101f6565b6001016101ad565b50806102145760405162461bcd60e51b81526004016101509061049d565b6001600160a01b03808516600090815260016020908152604080832054600283528184209488168452939091529020548190036102b95760405162461bcd60e51b815260206004820152603c60248201527f546f6b656e20616c7265616479207472616e7366657272656420746f2074686960448201527f73206164647265737320696e2063757272656e742076657273696f6e000000006064820152608401610150565b6001600160a01b03858116600081815260026020908152604080832094891680845294909152908190208490555163a9059cbb60e01b81526004810192909252602482018590529063a9059cbb906044016020604051808303816000875af1158015610329573d6000803e3d6000fd5b505050506040513d601f19601f8201168201806040525081019061034d91906104de565b505050505050565b6000805b6000548110156103a2576000818154811061037657610376610487565b6000918252602090912001546001600160a01b0316330361039a57600191506103a2565b600101610359565b50806103c05760405162461bcd60e51b81526004016101509061049d565b6001600160a01b038216600090815260016020819052604082208054919290916103eb908490610500565b90915550505050565b60006020828403121561040657600080fd5b5035919050565b80356001600160a01b038116811461042457600080fd5b919050565b60006020828403121561043b57600080fd5b6104448261040d565b9392505050565b60008060006060848603121561046057600080fd5b6104698461040d565b92506104776020850161040d565b9150604084013590509250925092565b634e487b7160e01b600052603260045260246000fd5b60208082526021908201527f4f6e6c79206f776e65722063616e2063616c6c20746869732066756e6374696f6040820152603760f91b606082015260800190565b6000602082840312156104f057600080fd5b8151801515811461044457600080fd5b8082018082111561052157634e487b7160e01b600052601160045260246000fd5b9291505056fea264697066735822122035706faf51a0c2ec0f0ffadfae1a973fc5e990c6c33ac7516810057654489daa64736f6c63430008170033","linkReferences":{}},"methodIdentifiers":{"addOwner(address)":"7065cb48","clearBlacklist(address)":"e424c385","owners(uint256)":"025e7c27","transfer(address,address,uint256)":"beabacc8"},"id":55}